{
  "_format": "hh-sol-artifact-1",
  "contractName": "Auth",
  "sourceName": "contracts/Auth.sol",
  "abi": [
    {
      "inputs": [
        {
          "internalType": "string",
          "name": "_ownerPassword",
          "type": "string"
        }
      ],
      "stateMutability": "nonpayable",
      "type": "constructor"
    },
    {
      "inputs": [
        {
          "internalType": "address",
          "name": "_address",
          "type": "address"
        }
      ],
      "name": "checkIsUserLogged",
      "outputs": [
        {
          "internalType": "bool",
          "name": "",
          "type": "bool"
        }
      ],
      "stateMutability": "view",
      "type": "function"
    },
    {
      "inputs": [
        {
          "internalType": "address",
          "name": "_address",
          "type": "address"
        },
        {
          "internalType": "string",
          "name": "_password",
          "type": "string"
        }
      ],
      "name": "login",
      "outputs": [
        {
          "internalType": "bool",
          "name": "",
          "type": "bool"
        }
      ],
      "stateMutability": "nonpayable",
      "type": "function"
    },
    {
      "inputs": [
        {
          "internalType": "address",
          "name": "_address",
          "type": "address"
        }
      ],
      "name": "logout",
      "outputs": [],
      "stateMutability": "nonpayable",
      "type": "function"
    },
    {
      "inputs": [],
      "name": "owner",
      "outputs": [
        {
          "internalType": "address",
          "name": "",
          "type": "address"
        }
      ],
      "stateMutability": "view",
      "type": "function"
    },
    {
      "inputs": [],
      "name": "ownerPassword",
      "outputs": [
        {
          "internalType": "string",
          "name": "",
          "type": "string"
        }
      ],
      "stateMutability": "view",
      "type": "function"
    },
    {
      "inputs": [
        {
          "internalType": "address",
          "name": "_address",
          "type": "address"
        },
        {
          "internalType": "string",
          "name": "_name",
          "type": "string"
        },
        {
          "internalType": "string",
          "name": "_password",
          "type": "string"
        },
        {
          "internalType": "enum Auth.UserType",
          "name": "_userType",
          "type": "uint8"
        }
      ],
      "name": "register",
      "outputs": [
        {
          "internalType": "bool",
          "name": "",
          "type": "bool"
        }
      ],
      "stateMutability": "nonpayable",
      "type": "function"
    },
    {
      "inputs": [
        {
          "internalType": "address",
          "name": "",
          "type": "address"
        }
      ],
      "name": "user",
      "outputs": [
        {
          "internalType": "address",
          "name": "addr",
          "type": "address"
        },
        {
          "internalType": "string",
          "name": "name",
          "type": "string"
        },
        {
          "internalType": "string",
          "name": "password",
          "type": "string"
        },
        {
          "internalType": "enum Auth.UserType",
          "name": "userType",
          "type": "uint8"
        },
        {
          "internalType": "bool",
          "name": "isUserLoggedIn",
          "type": "bool"
        }
      ],
      "stateMutability": "view",
      "type": "function"
    }
  ],
  "bytecode": "0x60806040523480156200001157600080fd5b5060405162001abd38038062001abd8339818101604052810190620000379190620005b3565b33600160006101000a81548173ffffffffffffffffffffffffffffffffffffffff021916908373ffffffffffffffffffffffffffffffffffffffff16021790555080600290816200008991906200084f565b5062000188600160009054906101000a900473ffffffffffffffffffffffffffffffffffffffff166040518060400160405280600581526020017f41646d696e00000000000000000000000000000000000000000000000000000081525060028054620000f6906200063e565b80601f016020809104026020016040519081016040528092919081815260200182805462000124906200063e565b8015620001755780601f10620001495761010080835404028352916020019162000175565b820191906000526020600020905b8154815290600101906020018083116200015757829003601f168201915b505050505060036200019060201b60201c565b505062000965565b60003373ffffffffffffffffffffffffffffffffffffffff166000808773ffffffffffffffffffffffffffffffffffffffff1673ffffffffffffffffffffffffffffffffffffffff16815260200190815260200160002060000160009054906101000a900473ffffffffffffffffffffffffffffffffffffffff1673ffffffffffffffffffffffffffffffffffffffff16036200022c57600080fd5b846000808773ffffffffffffffffffffffffffffffffffffffff1673ffffffffffffffffffffffffffffffffffffffff16815260200190815260200160002060000160006101000a81548173ffffffffffffffffffffffffffffffffffffffff021916908373ffffffffffffffffffffffffffffffffffffffff160217905550836000808773ffffffffffffffffffffffffffffffffffffffff1673ffffffffffffffffffffffffffffffffffffffff1681526020019081526020016000206001019081620002fc91906200084f565b50826000808773ffffffffffffffffffffffffffffffffffffffff1673ffffffffffffffffffffffffffffffffffffffff16815260200190815260200160002060020190816200034d91906200084f565b5060008060008773ffffffffffffffffffffffffffffffffffffffff1673ffffffffffffffffffffffffffffffffffffffff16815260200190815260200160002060030160016101000a81548160ff021916908315150217905550816000808773ffffffffffffffffffffffffffffffffffffffff1673ffffffffffffffffffffffffffffffffffffffff16815260200190815260200160002060030160006101000a81548160ff021916908360038111156200040f576200040e62000936565b5b021790555060019050949350505050565b6000604051905090565b600080fd5b600080fd5b600080fd5b600080fd5b6000601f19601f8301169050919050565b7f4e487b7100000000000000000000000000000000000000000000000000000000600052604160045260246000fd5b62000489826200043e565b810181811067ffffffffffffffff82111715620004ab57620004aa6200044f565b5b80604052505050565b6000620004c062000420565b9050620004ce82826200047e565b919050565b600067ffffffffffffffff821115620004f157620004f06200044f565b5b620004fc826200043e565b9050602081019050919050565b60005b83811015620005295780820151818401526020810190506200050c565b60008484015250505050565b60006200054c6200054684620004d3565b620004b4565b9050828152602081018484840111156200056b576200056a62000439565b5b6200057884828562000509565b509392505050565b600082601f83011262000598576200059762000434565b5b8151620005aa84826020860162000535565b91505092915050565b600060208284031215620005cc57620005cb6200042a565b5b600082015167ffffffffffffffff811115620005ed57620005ec6200042f565b5b620005fb8482850162000580565b91505092915050565b600081519050919050565b7f4e487b7100000000000000000000000000000000000000000000000000000000600052602260045260246000fd5b600060028204905060018216806200065757607f821691505b6020821081036200066d576200066c6200060f565b5b50919050565b60008190508160005260206000209050919050565b60006020601f8301049050919050565b600082821b905092915050565b600060088302620006d77fffffffffffffffffffffffffffffffffffffffffffffffffffffffffffffffff8262000698565b620006e3868362000698565b95508019841693508086168417925050509392505050565b6000819050919050565b6000819050919050565b6000620007306200072a6200072484620006fb565b62000705565b620006fb565b9050919050565b6000819050919050565b6200074c836200070f565b620007646200075b8262000737565b848454620006a5565b825550505050565b600090565b6200077b6200076c565b6200078881848462000741565b505050565b5b81811015620007b057620007a460008262000771565b6001810190506200078e565b5050565b601f821115620007ff57620007c98162000673565b620007d48462000688565b81016020851015620007e4578190505b620007fc620007f38562000688565b8301826200078d565b50505b505050565b600082821c905092915050565b6000620008246000198460080262000804565b1980831691505092915050565b60006200083f838362000811565b9150826002028217905092915050565b6200085a8262000604565b67ffffffffffffffff8111156200087657620008756200044f565b5b6200088282546200063e565b6200088f828285620007b4565b600060209050601f831160018114620008c75760008415620008b2578287015190505b620008be858262000831565b8655506200092e565b601f198416620008d78662000673565b60005b828110156200090157848901518255600182019150602085019450602081019050620008da565b868310156200092157848901516200091d601f89168262000811565b8355505b6001600288020188555050505b505050505050565b7f4e487b7100000000000000000000000000000000000000000000000000000000600052602160045260246000fd5b61114880620009756000396000f3fe608060405234801561001057600080fd5b506004361061007d5760003560e01c8063611a7a191161005b578063611a7a191461010057806381e7e20e146101305780638da5cb5b14610164578063cc51f9b9146101825761007d565b8063297f7b39146100825780632f19d50b146100b257806330e2b2f5146100e2575b600080fd5b61009c600480360381019061009791906108d1565b61019e565b6040516100a99190610919565b60405180910390f35b6100cc60048036038101906100c79190610a7a565b6101f6565b6040516100d99190610919565b60405180910390f35b6100ea610346565b6040516100f79190610b55565b60405180910390f35b61011a60048036038101906101159190610b9c565b6103d4565b6040516101279190610919565b60405180910390f35b61014a600480360381019061014591906108d1565b61065c565b60405161015b959493929190610cc1565b60405180910390f35b61016c6107dc565b6040516101799190610d22565b60405180910390f35b61019c600480360381019061019791906108d1565b610802565b005b60008060008373ffffffffffffffffffffffffffffffffffffffff1673ffffffffffffffffffffffffffffffffffffffff16815260200190815260200160002060030160019054906101000a900460ff169050919050565b6000816040516020016102099190610d79565b604051602081830303815290604052805190602001206000808573ffffffffffffffffffffffffffffffffffffffff1673ffffffffffffffffffffffffffffffffffffffff1681526020019081526020016000206002016040516020016102709190610e88565b604051602081830303815290604052805190602001200361033b5760016000808573ffffffffffffffffffffffffffffffffffffffff1673ffffffffffffffffffffffffffffffffffffffff16815260200190815260200160002060030160016101000a81548160ff0219169083151502179055506000808473ffffffffffffffffffffffffffffffffffffffff1673ffffffffffffffffffffffffffffffffffffffff16815260200190815260200160002060030160019054906101000a900460ff169050610340565b600090505b92915050565b6002805461035390610dbf565b80601f016020809104026020016040519081016040528092919081815260200182805461037f90610dbf565b80156103cc5780601f106103a1576101008083540402835291602001916103cc565b820191906000526020600020905b8154815290600101906020018083116103af57829003601f168201915b505050505081565b60003373ffffffffffffffffffffffffffffffffffffffff166000808773ffffffffffffffffffffffffffffffffffffffff1673ffffffffffffffffffffffffffffffffffffffff16815260200190815260200160002060000160009054906101000a900473ffffffffffffffffffffffffffffffffffffffff1673ffffffffffffffffffffffffffffffffffffffff160361046f57600080fd5b846000808773ffffffffffffffffffffffffffffffffffffffff1673ffffffffffffffffffffffffffffffffffffffff16815260200190815260200160002060000160006101000a81548173ffffffffffffffffffffffffffffffffffffffff021916908373ffffffffffffffffffffffffffffffffffffffff160217905550836000808773ffffffffffffffffffffffffffffffffffffffff1673ffffffffffffffffffffffffffffffffffffffff168152602001908152602001600020600101908161053d9190611040565b50826000808773ffffffffffffffffffffffffffffffffffffffff1673ffffffffffffffffffffffffffffffffffffffff168152602001908152602001600020600201908161058c9190611040565b5060008060008773ffffffffffffffffffffffffffffffffffffffff1673ffffffffffffffffffffffffffffffffffffffff16815260200190815260200160002060030160016101000a81548160ff021916908315150217905550816000808773ffffffffffffffffffffffffffffffffffffffff1673ffffffffffffffffffffffffffffffffffffffff16815260200190815260200160002060030160006101000a81548160ff0219169083600381111561064b5761064a610c4a565b5b021790555060019050949350505050565b60006020528060005260406000206000915090508060000160009054906101000a900473ffffffffffffffffffffffffffffffffffffffff16908060010180546106a590610dbf565b80601f01602080910402602001604051908101604052809291908181526020018280546106d190610dbf565b801561071e5780601f106106f35761010080835404028352916020019161071e565b820191906000526020600020905b81548152906001019060200180831161070157829003601f168201915b50505050509080600201805461073390610dbf565b80601f016020809104026020016040519081016040528092919081815260200182805461075f90610dbf565b80156107ac5780601f10610781576101008083540402835291602001916107ac565b820191906000526020600020905b81548152906001019060200180831161078f57829003601f168201915b5050505050908060030160009054906101000a900460ff16908060030160019054906101000a900460ff16905085565b600160009054906101000a900473ffffffffffffffffffffffffffffffffffffffff1681565b60008060008373ffffffffffffffffffffffffffffffffffffffff1673ffffffffffffffffffffffffffffffffffffffff16815260200190815260200160002060030160016101000a81548160ff02191690831515021790555050565b6000604051905090565b600080fd5b600080fd5b600073ffffffffffffffffffffffffffffffffffffffff82169050919050565b600061089e82610873565b9050919050565b6108ae81610893565b81146108b957600080fd5b50565b6000813590506108cb816108a5565b92915050565b6000602082840312156108e7576108e6610869565b5b60006108f5848285016108bc565b91505092915050565b60008115159050919050565b610913816108fe565b82525050565b600060208201905061092e600083018461090a565b92915050565b600080fd5b600080fd5b6000601f19601f8301169050919050565b7f4e487b7100000000000000000000000000000000000000000000000000000000600052604160045260246000fd5b6109878261093e565b810181811067ffffffffffffffff821117156109a6576109a561094f565b5b80604052505050565b60006109b961085f565b90506109c5828261097e565b919050565b600067ffffffffffffffff8211156109e5576109e461094f565b5b6109ee8261093e565b9050602081019050919050565b82818337600083830152505050565b6000610a1d610a18846109ca565b6109af565b905082815260208101848484011115610a3957610a38610939565b5b610a448482856109fb565b509392505050565b600082601f830112610a6157610a60610934565b5b8135610a71848260208601610a0a565b91505092915050565b60008060408385031215610a9157610a90610869565b5b6000610a9f858286016108bc565b925050602083013567ffffffffffffffff811115610ac057610abf61086e565b5b610acc85828601610a4c565b9150509250929050565b600081519050919050565b600082825260208201905092915050565b60005b83811015610b10578082015181840152602081019050610af5565b60008484015250505050565b6000610b2782610ad6565b610b318185610ae1565b9350610b41818560208601610af2565b610b4a8161093e565b840191505092915050565b60006020820190508181036000830152610b6f8184610b1c565b905092915050565b60048110610b8457600080fd5b50565b600081359050610b9681610b77565b92915050565b60008060008060808587031215610bb657610bb5610869565b5b6000610bc4878288016108bc565b945050602085013567ffffffffffffffff811115610be557610be461086e565b5b610bf187828801610a4c565b935050604085013567ffffffffffffffff811115610c1257610c1161086e565b5b610c1e87828801610a4c565b9250506060610c2f87828801610b87565b91505092959194509250565b610c4481610893565b82525050565b7f4e487b7100000000000000000000000000000000000000000000000000000000600052602160045260246000fd5b60048110610c8a57610c89610c4a565b5b50565b6000819050610c9b82610c79565b919050565b6000610cab82610c8d565b9050919050565b610cbb81610ca0565b82525050565b600060a082019050610cd66000830188610c3b565b8181036020830152610ce88187610b1c565b90508181036040830152610cfc8186610b1c565b9050610d0b6060830185610cb2565b610d18608083018461090a565b9695505050505050565b6000602082019050610d376000830184610c3b565b92915050565b600081905092915050565b6000610d5382610ad6565b610d5d8185610d3d565b9350610d6d818560208601610af2565b80840191505092915050565b6000610d858284610d48565b915081905092915050565b7f4e487b7100000000000000000000000000000000000000000000000000000000600052602260045260246000fd5b60006002820490506001821680610dd757607f821691505b602082108103610dea57610de9610d90565b5b50919050565b60008190508160005260206000209050919050565b60008154610e1281610dbf565b610e1c8186610d3d565b94506001821660008114610e375760018114610e4c57610e7f565b60ff1983168652811515820286019350610e7f565b610e5585610df0565b60005b83811015610e7757815481890152600182019150602081019050610e58565b838801955050505b50505092915050565b6000610e948284610e05565b915081905092915050565b60006020601f8301049050919050565b600082821b905092915050565b600060088302610eec7fffffffffffffffffffffffffffffffffffffffffffffffffffffffffffffffff82610eaf565b610ef68683610eaf565b95508019841693508086168417925050509392505050565b6000819050919050565b6000819050919050565b6000610f3d610f38610f3384610f0e565b610f18565b610f0e565b9050919050565b6000819050919050565b610f5783610f22565b610f6b610f6382610f44565b848454610ebc565b825550505050565b600090565b610f80610f73565b610f8b818484610f4e565b505050565b5b81811015610faf57610fa4600082610f78565b600181019050610f91565b5050565b601f821115610ff457610fc581610df0565b610fce84610e9f565b81016020851015610fdd578190505b610ff1610fe985610e9f565b830182610f90565b50505b505050565b600082821c905092915050565b600061101760001984600802610ff9565b1980831691505092915050565b60006110308383611006565b9150826002028217905092915050565b61104982610ad6565b67ffffffffffffffff8111156110625761106161094f565b5b61106c8254610dbf565b611077828285610fb3565b600060209050601f8311600181146110aa5760008415611098578287015190505b6110a28582611024565b86555061110a565b601f1984166110b886610df0565b60005b828110156110e0578489015182556001820191506020850194506020810190506110bb565b868310156110fd57848901516110f9601f891682611006565b8355505b6001600288020188555050505b50505050505056fea26469706673582212200a9a670d19c3d0f14b1fd6998021356cc588741321e0e766b96ff40f024a79ef64736f6c63430008120033",
  "linkReferences": {},
  "deployedLinkReferences": {}
}