{
  "_format": "hh-sol-artifact-1",
  "contractName": "Charity",
  "sourceName": "contracts/Charity.sol",
  "abi": [
    {
      "inputs": [],
      "stateMutability": "nonpayable",
      "type": "constructor"
    },
    {
      "anonymous": false,
      "inputs": [
        {
          "indexed": false,
          "internalType": "uint256",
          "name": "requestId",
          "type": "uint256"
        },
        {
          "indexed": false,
          "internalType": "address",
          "name": "donor",
          "type": "address"
        },
        {
          "indexed": false,
          "internalType": "uint256",
          "name": "amount",
          "type": "uint256"
        }
      ],
      "name": "DonationReceived",
      "type": "event"
    },
    {
      "anonymous": false,
      "inputs": [
        {
          "indexed": false,
          "internalType": "uint256",
          "name": "requestId",
          "type": "uint256"
        }
      ],
      "name": "ProjectRequestApproved",
      "type": "event"
    },
    {
      "anonymous": false,
      "inputs": [
        {
          "indexed": false,
          "internalType": "uint256",
          "name": "requestId",
          "type": "uint256"
        }
      ],
      "name": "ProjectRequestCompleted",
      "type": "event"
    },
    {
      "anonymous": false,
      "inputs": [
        {
          "indexed": false,
          "internalType": "uint256",
          "name": "requestId",
          "type": "uint256"
        }
      ],
      "name": "ProjectRequestCreated",
      "type": "event"
    },
    {
      "anonymous": false,
      "inputs": [
        {
          "indexed": false,
          "internalType": "uint256",
          "name": "requestId",
          "type": "uint256"
        }
      ],
      "name": "ProjectRequestRejected",
      "type": "event"
    },
    {
      "inputs": [],
      "name": "Admin",
      "outputs": [
        {
          "internalType": "address",
          "name": "",
          "type": "address"
        }
      ],
      "stateMutability": "view",
      "type": "function"
    },
    {
      "inputs": [
        {
          "internalType": "uint256",
          "name": "_projectId",
          "type": "uint256"
        }
      ],
      "name": "approveProject",
      "outputs": [],
      "stateMutability": "nonpayable",
      "type": "function"
    },
    {
      "inputs": [
        {
          "internalType": "uint256",
          "name": "_projectId",
          "type": "uint256"
        }
      ],
      "name": "completeProject",
      "outputs": [],
      "stateMutability": "nonpayable",
      "type": "function"
    },
    {
      "inputs": [
        {
          "internalType": "string",
          "name": "_name",
          "type": "string"
        },
        {
          "internalType": "string",
          "name": "_description",
          "type": "string"
        },
        {
          "internalType": "uint256",
          "name": "_amount",
          "type": "uint256"
        }
      ],
      "name": "createProject",
      "outputs": [],
      "stateMutability": "nonpayable",
      "type": "function"
    },
    {
      "inputs": [
        {
          "internalType": "uint256",
          "name": "_projectId",
          "type": "uint256"
        }
      ],
      "name": "donate",
      "outputs": [],
      "stateMutability": "payable",
      "type": "function"
    },
    {
      "inputs": [
        {
          "internalType": "address",
          "name": "_user",
          "type": "address"
        }
      ],
      "name": "getProjectsByAddress",
      "outputs": [
        {
          "components": [
            {
              "internalType": "uint256",
              "name": "id",
              "type": "uint256"
            },
            {
              "internalType": "address",
              "name": "userType",
              "type": "address"
            },
            {
              "internalType": "string",
              "name": "name",
              "type": "string"
            },
            {
              "internalType": "string",
              "name": "description",
              "type": "string"
            },
            {
              "internalType": "uint256",
              "name": "totalAmount",
              "type": "uint256"
            },
            {
              "internalType": "uint256",
              "name": "donatedAmount",
              "type": "uint256"
            },
            {
              "internalType": "enum Charity.ProjectStatus",
              "name": "status",
              "type": "uint8"
            }
          ],
          "internalType": "struct Charity.projectInfo[]",
          "name": "",
          "type": "tuple[]"
        }
      ],
      "stateMutability": "view",
      "type": "function"
    },
    {
      "inputs": [],
      "name": "getprojects",
      "outputs": [
        {
          "components": [
            {
              "internalType": "uint256",
              "name": "id",
              "type": "uint256"
            },
            {
              "internalType": "address",
              "name": "userType",
              "type": "address"
            },
            {
              "internalType": "string",
              "name": "name",
              "type": "string"
            },
            {
              "internalType": "string",
              "name": "description",
              "type": "string"
            },
            {
              "internalType": "uint256",
              "name": "totalAmount",
              "type": "uint256"
            },
            {
              "internalType": "uint256",
              "name": "donatedAmount",
              "type": "uint256"
            },
            {
              "internalType": "enum Charity.ProjectStatus",
              "name": "status",
              "type": "uint8"
            }
          ],
          "internalType": "struct Charity.projectInfo[]",
          "name": "",
          "type": "tuple[]"
        }
      ],
      "stateMutability": "view",
      "type": "function"
    },
    {
      "inputs": [
        {
          "internalType": "uint256",
          "name": "",
          "type": "uint256"
        }
      ],
      "name": "project",
      "outputs": [
        {
          "internalType": "uint256",
          "name": "id",
          "type": "uint256"
        },
        {
          "internalType": "address",
          "name": "userType",
          "type": "address"
        },
        {
          "internalType": "string",
          "name": "name",
          "type": "string"
        },
        {
          "internalType": "string",
          "name": "description",
          "type": "string"
        },
        {
          "internalType": "uint256",
          "name": "totalAmount",
          "type": "uint256"
        },
        {
          "internalType": "uint256",
          "name": "donatedAmount",
          "type": "uint256"
        },
        {
          "internalType": "enum Charity.ProjectStatus",
          "name": "status",
          "type": "uint8"
        }
      ],
      "stateMutability": "view",
      "type": "function"
    },
    {
      "inputs": [
        {
          "internalType": "uint256",
          "name": "_projectId",
          "type": "uint256"
        }
      ],
      "name": "rejectProject",
      "outputs": [],
      "stateMutability": "nonpayable",
      "type": "function"
    }
  ],
  "bytecode": "0x608060405234801561001057600080fd5b5033600160006101000a81548173ffffffffffffffffffffffffffffffffffffffff021916908373ffffffffffffffffffffffffffffffffffffffff1602179055506125ea806100616000396000f3fe6080604052600436106100865760003560e01c806369b04f191161005957806369b04f191461014b578063d5842c8b14610174578063f14faf6f146101b1578063fc69d836146101cd578063ff1b636d146101f657610086565b806311d5aaa71461008b5780632245f152146100ce57806323c55448146100f75780634ebfb3cb14610120575b600080fd5b34801561009757600080fd5b506100b260048036038101906100ad9190611632565b610221565b6040516100c597969594939291906117b6565b60405180910390f35b3480156100da57600080fd5b506100f560048036038101906100f09190611632565b6103b0565b005b34801561010357600080fd5b5061011e60048036038101906101199190611968565b610539565b005b34801561012c57600080fd5b50610135610849565b6040516101429190611bcf565b60405180910390f35b34801561015757600080fd5b50610172600480360381019061016d9190611632565b610a7b565b005b34801561018057600080fd5b5061019b60048036038101906101969190611c1d565b610c4f565b6040516101a89190611bcf565b60405180910390f35b6101cb60048036038101906101c69190611632565b61102a565b005b3480156101d957600080fd5b506101f460048036038101906101ef9190611632565b61121a565b005b34801561020257600080fd5b5061020b6113fc565b6040516102189190611c4a565b60405180910390f35b6000818154811061023157600080fd5b90600052602060002090600702016000915090508060000154908060010160009054906101000a900473ffffffffffffffffffffffffffffffffffffffff169080600201805461028090611c94565b80601f01602080910402602001604051908101604052809291908181526020018280546102ac90611c94565b80156102f95780601f106102ce576101008083540402835291602001916102f9565b820191906000526020600020905b8154815290600101906020018083116102dc57829003601f168201915b50505050509080600301805461030e90611c94565b80601f016020809104026020016040519081016040528092919081815260200182805461033a90611c94565b80156103875780601f1061035c57610100808354040283529160200191610387565b820191906000526020600020905b81548152906001019060200180831161036a57829003601f168201915b5050505050908060040154908060050154908060060160009054906101000a900460ff16905087565b600081815481106103c4576103c3611cc5565b5b906000526020600020906007020160050154600082815481106103ea576103e9611cc5565b5b9060005260206000209060070201600401541461043c576040517f08c379a000000000000000000000000000000000000000000000000000000000815260040161043390611d66565b60405180910390fd5b60036000828154811061045257610451611cc5565b5b906000526020600020906007020160060160006101000a81548160ff021916908360038111156104855761048461173f565b5b02179055506104ff6040518060400160405280601081526020017f50656f6a65637420776974682049443a00000000000000000000000000000000815250826040518060400160405280601281526020017f686173206265656e20436f6d706c657465640000000000000000000000000000815250611422565b7fa5495a4d6e8c2830c852199a4255a8be3ccf828eb8ef015733f1e9ffe3fab21a8160405161052e9190611d86565b60405180910390a150565b600160009054906101000a900473ffffffffffffffffffffffffffffffffffffffff1673ffffffffffffffffffffffffffffffffffffffff163373ffffffffffffffffffffffffffffffffffffffff16036105c9576040517f08c379a00000000000000000000000000000000000000000000000000000000081526004016105c090611e13565b60405180910390fd5b600160009054906101000a900473ffffffffffffffffffffffffffffffffffffffff1673ffffffffffffffffffffffffffffffffffffffff163373ffffffffffffffffffffffffffffffffffffffff16141580156106545750600073ffffffffffffffffffffffffffffffffffffffff163373ffffffffffffffffffffffffffffffffffffffff1614155b610693576040517f08c379a000000000000000000000000000000000000000000000000000000000815260040161068a90611ea5565b60405180910390fd5b60006040518060e0016040528060008054905081526020013373ffffffffffffffffffffffffffffffffffffffff168152602001858152602001848152602001670de0b6b3a7640000846106e79190611ef4565b815260200160008152602001600060038111156107075761070661173f565b5b815250905060008190806001815401808255809150506001900390600052602060002090600702016000909190919091506000820151816000015560208201518160010160006101000a81548173ffffffffffffffffffffffffffffffffffffffff021916908373ffffffffffffffffffffffffffffffffffffffff160217905550604082015181600201908161079e91906120e2565b5060608201518160030190816107b491906120e2565b506080820151816004015560a0820151816005015560c08201518160060160006101000a81548160ff021916908360038111156107f4576107f361173f565b5b021790555050507f29c8bfa64ed1d52f4f907316a31fcc1a78337f501a33e32909275b572fb0dcb3600160008054905061082e91906121b4565b60405161083b9190611d86565b60405180910390a150505050565b60606000805480602002602001604051908101604052809291908181526020016000905b82821015610a7257838290600052602060002090600702016040518060e0016040529081600082015481526020016001820160009054906101000a900473ffffffffffffffffffffffffffffffffffffffff1673ffffffffffffffffffffffffffffffffffffffff1673ffffffffffffffffffffffffffffffffffffffff16815260200160028201805461090090611c94565b80601f016020809104026020016040519081016040528092919081815260200182805461092c90611c94565b80156109795780601f1061094e57610100808354040283529160200191610979565b820191906000526020600020905b81548152906001019060200180831161095c57829003601f168201915b5050505050815260200160038201805461099290611c94565b80601f01602080910402602001604051908101604052809291908181526020018280546109be90611c94565b8015610a0b5780601f106109e057610100808354040283529160200191610a0b565b820191906000526020600020905b8154815290600101906020018083116109ee57829003601f168201915b5050505050815260200160048201548152602001600582015481526020016006820160009054906101000a900460ff166003811115610a4d57610a4c61173f565b5b6003811115610a5f57610a5e61173f565b5b815250508152602001906001019061086d565b50505050905090565b600160009054906101000a900473ffffffffffffffffffffffffffffffffffffffff1673ffffffffffffffffffffffffffffffffffffffff163373ffffffffffffffffffffffffffffffffffffffff1614610b0b576040517f08c379a0000000000000000000000000000000000000000000000000000000008152600401610b029061225a565b60405180910390fd5b6000805490508110610b52576040517f08c379a0000000000000000000000000000000000000000000000000000000008152600401610b49906122c6565b60405180910390fd5b600260008281548110610b6857610b67611cc5565b5b906000526020600020906007020160060160006101000a81548160ff02191690836003811115610b9b57610b9a61173f565b5b0217905550610c156040518060400160405280601081526020017f50656f6a65637420776974682049443a00000000000000000000000000000000815250826040518060400160405280601181526020017f686173206265656e2052656a6563746564000000000000000000000000000000815250611422565b7fcf94b118d9ea350243a4ef43479128068b2c45bc24e6ddca1b6a530dc23ee7f281604051610c449190611d86565b60405180910390a150565b60606000805b600080549050811015610cfc578373ffffffffffffffffffffffffffffffffffffffff1660008281548110610c8d57610c8c611cc5565b5b906000526020600020906007020160010160009054906101000a900473ffffffffffffffffffffffffffffffffffffffff1673ffffffffffffffffffffffffffffffffffffffff1603610ce9578180610ce5906122e6565b9250505b8080610cf4906122e6565b915050610c55565b5060008167ffffffffffffffff811115610d1957610d1861183d565b5b604051908082528060200260200182016040528015610d5257816020015b610d3f611583565b815260200190600190039081610d375790505b5090506000805b60008054905081101561101e578573ffffffffffffffffffffffffffffffffffffffff1660008281548110610d9157610d90611cc5565b5b906000526020600020906007020160010160009054906101000a900473ffffffffffffffffffffffffffffffffffffffff1673ffffffffffffffffffffffffffffffffffffffff160361100b5760008181548110610df257610df1611cc5565b5b90600052602060002090600702016040518060e0016040529081600082015481526020016001820160009054906101000a900473ffffffffffffffffffffffffffffffffffffffff1673ffffffffffffffffffffffffffffffffffffffff1673ffffffffffffffffffffffffffffffffffffffff168152602001600282018054610e7b90611c94565b80601f0160208091040260200160405190810160405280929190818152602001828054610ea790611c94565b8015610ef45780601f10610ec957610100808354040283529160200191610ef4565b820191906000526020600020905b815481529060010190602001808311610ed757829003601f168201915b50505050508152602001600382018054610f0d90611c94565b80601f0160208091040260200160405190810160405280929190818152602001828054610f3990611c94565b8015610f865780601f10610f5b57610100808354040283529160200191610f86565b820191906000526020600020905b815481529060010190602001808311610f6957829003601f168201915b5050505050815260200160048201548152602001600582015481526020016006820160009054906101000a900460ff166003811115610fc857610fc761173f565b5b6003811115610fda57610fd961173f565b5b81525050838381518110610ff157610ff0611cc5565b5b60200260200101819052508180611007906122e6565b9250505b8080611016906122e6565b915050610d59565b50819350505050919050565b6000805490508110611071576040517f08c379a00000000000000000000000000000000000000000000000000000000081526004016110689061237a565b60405180910390fd5b600080828154811061108657611085611cc5565b5b90600052602060002090600702019050600160038111156110aa576110a961173f565b5b8160060160009054906101000a900460ff1660038111156110ce576110cd61173f565b5b1461110e576040517f08c379a0000000000000000000000000000000000000000000000000000000008152600401611105906123e6565b60405180910390fd5b80600401543482600501546111239190612406565b1115611164576040517f08c379a000000000000000000000000000000000000000000000000000000000815260040161115b906124ac565b60405180910390fd5b600034116111a7576040517f08c379a000000000000000000000000000000000000000000000000000000000815260040161119e90612518565b60405180910390fd5b348160050160008282546111bb9190612406565b9250508190555080600401548160050154036111db576111da826103b0565b5b7f0b5b4c52969ff7329ecf7ee536409fda87812b15a8622bc6e8cdeab3aee14a2682333460405161120e93929190612538565b60405180910390a15050565b600160009054906101000a900473ffffffffffffffffffffffffffffffffffffffff1673ffffffffffffffffffffffffffffffffffffffff163373ffffffffffffffffffffffffffffffffffffffff16146112aa576040517f08c379a00000000000000000000000000000000000000000000000000000000081526004016112a19061225a565b60405180910390fd5b6112b86000805490506114c1565b60008054905081106112ff576040517f08c379a00000000000000000000000000000000000000000000000000000000081526004016112f69061237a565b60405180910390fd5b60016000828154811061131557611314611cc5565b5b906000526020600020906007020160060160006101000a81548160ff021916908360038111156113485761134761173f565b5b02179055506113c26040518060400160405280601081526020017f50656f6a65637420776974682049443a00000000000000000000000000000000815250826040518060400160405280601181526020017f686173206265656e20417070726f766564000000000000000000000000000000815250611422565b7f358f46d2ba37504ec6c510cf57a0e509fba4c425f18abbacdfa62042387fe15f816040516113f19190611d86565b60405180910390a150565b600160009054906101000a900473ffffffffffffffffffffffffffffffffffffffff1681565b6114bc83838360405160240161143a9392919061256f565b6040516020818303038152906040527f5970e089000000000000000000000000000000000000000000000000000000007bffffffffffffffffffffffffffffffffffffffffffffffffffffffff19166020820180517bffffffffffffffffffffffffffffffffffffffffffffffffffffffff838183161783525050505061155a565b505050565b611557816040516024016114d59190611d86565b6040516020818303038152906040527ff82c50f1000000000000000000000000000000000000000000000000000000007bffffffffffffffffffffffffffffffffffffffffffffffffffffffff19166020820180517bffffffffffffffffffffffffffffffffffffffffffffffffffffffff838183161783525050505061155a565b50565b60008151905060006a636f6e736f6c652e6c6f679050602083016000808483855afa5050505050565b6040518060e0016040528060008152602001600073ffffffffffffffffffffffffffffffffffffffff16815260200160608152602001606081526020016000815260200160008152602001600060038111156115e2576115e161173f565b5b81525090565b6000604051905090565b600080fd5b600080fd5b6000819050919050565b61160f816115fc565b811461161a57600080fd5b50565b60008135905061162c81611606565b92915050565b600060208284031215611648576116476115f2565b5b60006116568482850161161d565b91505092915050565b611668816115fc565b82525050565b600073ffffffffffffffffffffffffffffffffffffffff82169050919050565b60006116998261166e565b9050919050565b6116a98161168e565b82525050565b600081519050919050565b600082825260208201905092915050565b60005b838110156116e95780820151818401526020810190506116ce565b60008484015250505050565b6000601f19601f8301169050919050565b6000611711826116af565b61171b81856116ba565b935061172b8185602086016116cb565b611734816116f5565b840191505092915050565b7f4e487b7100000000000000000000000000000000000000000000000000000000600052602160045260246000fd5b6004811061177f5761177e61173f565b5b50565b60008190506117908261176e565b919050565b60006117a082611782565b9050919050565b6117b081611795565b82525050565b600060e0820190506117cb600083018a61165f565b6117d860208301896116a0565b81810360408301526117ea8188611706565b905081810360608301526117fe8187611706565b905061180d608083018661165f565b61181a60a083018561165f565b61182760c08301846117a7565b98975050505050505050565b600080fd5b600080fd5b7f4e487b7100000000000000000000000000000000000000000000000000000000600052604160045260246000fd5b611875826116f5565b810181811067ffffffffffffffff821117156118945761189361183d565b5b80604052505050565b60006118a76115e8565b90506118b3828261186c565b919050565b600067ffffffffffffffff8211156118d3576118d261183d565b5b6118dc826116f5565b9050602081019050919050565b82818337600083830152505050565b600061190b611906846118b8565b61189d565b90508281526020810184848401111561192757611926611838565b5b6119328482856118e9565b509392505050565b600082601f83011261194f5761194e611833565b5b813561195f8482602086016118f8565b91505092915050565b600080600060608486031215611981576119806115f2565b5b600084013567ffffffffffffffff81111561199f5761199e6115f7565b5b6119ab8682870161193a565b935050602084013567ffffffffffffffff8111156119cc576119cb6115f7565b5b6119d88682870161193a565b92505060406119e98682870161161d565b9150509250925092565b600081519050919050565b600082825260208201905092915050565b6000819050602082019050919050565b611a28816115fc565b82525050565b611a378161168e565b82525050565b600082825260208201905092915050565b6000611a59826116af565b611a638185611a3d565b9350611a738185602086016116cb565b611a7c816116f5565b840191505092915050565b611a9081611795565b82525050565b600060e083016000830151611aae6000860182611a1f565b506020830151611ac16020860182611a2e565b5060408301518482036040860152611ad98282611a4e565b91505060608301518482036060860152611af38282611a4e565b9150506080830151611b086080860182611a1f565b5060a0830151611b1b60a0860182611a1f565b5060c0830151611b2e60c0860182611a87565b508091505092915050565b6000611b458383611a96565b905092915050565b6000602082019050919050565b6000611b65826119f3565b611b6f81856119fe565b935083602082028501611b8185611a0f565b8060005b85811015611bbd5784840389528151611b9e8582611b39565b9450611ba983611b4d565b925060208a01995050600181019050611b85565b50829750879550505050505092915050565b60006020820190508181036000830152611be98184611b5a565b905092915050565b611bfa8161168e565b8114611c0557600080fd5b50565b600081359050611c1781611bf1565b92915050565b600060208284031215611c3357611c326115f2565b5b6000611c4184828501611c08565b91505092915050565b6000602082019050611c5f60008301846116a0565b92915050565b7f4e487b7100000000000000000000000000000000000000000000000000000000600052602260045260246000fd5b60006002820490506001821680611cac57607f821691505b602082108103611cbf57611cbe611c65565b5b50919050565b7f4e487b7100000000000000000000000000000000000000000000000000000000600052603260045260246000fd5b7f50726f6a65637420646f6e6174696f6e73206172652070656e64696e67206f7260008201527f20696e636f6d706c657465000000000000000000000000000000000000000000602082015250565b6000611d50602b836116ba565b9150611d5b82611cf4565b604082019050919050565b60006020820190508181036000830152611d7f81611d43565b9050919050565b6000602082019050611d9b600083018461165f565b92915050565b7f4f6e6c792062656e656669636961727920616e64206f7267616e697a6174696f60008201527f6e2063616e2063616c6c20746869732066756e6374696f6e7300000000000000602082015250565b6000611dfd6039836116ba565b9150611e0882611da1565b604082019050919050565b60006020820190508181036000830152611e2c81611df0565b9050919050565b7f4f6e6c792062656e6566696369617269657320616e64206f7267616e697a617460008201527f696f6e732063616e2063616c6c20746869732066756e6374696f6e2e00000000602082015250565b6000611e8f603c836116ba565b9150611e9a82611e33565b604082019050919050565b60006020820190508181036000830152611ebe81611e82565b9050919050565b7f4e487b7100000000000000000000000000000000000000000000000000000000600052601160045260246000fd5b6000611eff826115fc565b9150611f0a836115fc565b9250828202611f18816115fc565b91508282048414831517611f2f57611f2e611ec5565b5b5092915050565b60008190508160005260206000209050919050565b60006020601f8301049050919050565b600082821b905092915050565b600060088302611f987fffffffffffffffffffffffffffffffffffffffffffffffffffffffffffffffff82611f5b565b611fa28683611f5b565b95508019841693508086168417925050509392505050565b6000819050919050565b6000611fdf611fda611fd5846115fc565b611fba565b6115fc565b9050919050565b6000819050919050565b611ff983611fc4565b61200d61200582611fe6565b848454611f68565b825550505050565b600090565b612022612015565b61202d818484611ff0565b505050565b5b818110156120515761204660008261201a565b600181019050612033565b5050565b601f8211156120965761206781611f36565b61207084611f4b565b8101602085101561207f578190505b61209361208b85611f4b565b830182612032565b50505b505050565b600082821c905092915050565b60006120b96000198460080261209b565b1980831691505092915050565b60006120d283836120a8565b9150826002028217905092915050565b6120eb826116af565b67ffffffffffffffff8111156121045761210361183d565b5b61210e8254611c94565b612119828285612055565b600060209050601f83116001811461214c576000841561213a578287015190505b61214485826120c6565b8655506121ac565b601f19841661215a86611f36565b60005b828110156121825784890151825560018201915060208501945060208101905061215d565b8683101561219f578489015161219b601f8916826120a8565b8355505b6001600288020188555050505b505050505050565b60006121bf826115fc565b91506121ca836115fc565b92508282039050818111156121e2576121e1611ec5565b5b92915050565b7f4f6e6c792061646d696e732063616e2063616c6c20746869732066756e63746960008201527f6f6e2e0000000000000000000000000000000000000000000000000000000000602082015250565b60006122446023836116ba565b915061224f826121e8565b604082019050919050565b6000602082019050818103600083015261227381612237565b9050919050565b7f496e76616c69642070726f6a6563742049440000000000000000000000000000600082015250565b60006122b06012836116ba565b91506122bb8261227a565b602082019050919050565b600060208201905081810360008301526122df816122a3565b9050919050565b60006122f1826115fc565b91507fffffffffffffffffffffffffffffffffffffffffffffffffffffffffffffffff820361232357612322611ec5565b5b600182019050919050565b7f496e76616c69642050726f6a6563742049440000000000000000000000000000600082015250565b60006123646012836116ba565b915061236f8261232e565b602082019050919050565b6000602082019050818103600083015261239381612357565b9050919050565b7f50726f6a656374206973206e6f7420617070726f766564207965740000000000600082015250565b60006123d0601b836116ba565b91506123db8261239a565b602082019050919050565b600060208201905081810360008301526123ff816123c3565b9050919050565b6000612411826115fc565b915061241c836115fc565b925082820190508082111561243457612433611ec5565b5b92915050565b7f43616e277420616363657074206d6f7265207468616e2072657175697265642060008201527f646f6e6174696f6e000000000000000000000000000000000000000000000000602082015250565b60006124966028836116ba565b91506124a18261243a565b604082019050919050565b600060208201905081810360008301526124c581612489565b9050919050565b7f646f6e6174652067726561746572207468616e20300000000000000000000000600082015250565b60006125026015836116ba565b915061250d826124cc565b602082019050919050565b60006020820190508181036000830152612531816124f5565b9050919050565b600060608201905061254d600083018661165f565b61255a60208301856116a0565b612567604083018461165f565b949350505050565b600060608201905081810360008301526125898186611706565b9050612598602083018561165f565b81810360408301526125aa8184611706565b905094935050505056fea26469706673582212209a938af5ec433abc11c63af5e696fddd9dbdcc859fc3be3d64d456d9476d19bf64736f6c63430008120033",
  "linkReferences": {},
  "deployedLinkReferences": {}
}